:1000000012C02CC02BC02AC029C028C027C026C0BF
:1000100025C067C123C01BC2E2C220C028C01EC0C9
:100020001DC01CC01BC011241FBECFE5D4E0DEBF25
:10003000CDBF10E0A6E6B0E001C01D92A238B10726
:10004000E1F710E0A0E6B0E0EEE9F9E002C00590CB
:100050000D92A636B107D9F7FAD29FC4D1CF81E06D
:1000600087B986B18F6E86B980E090E008951F92BF
:100070000F920FB60F9211241F932F933F934F931C
:100080005F936F937F938F939F93AF93BF93CF9320
:10009000DF93EF93FF93369817B124B135B13695BE
:1000A000279536952795609167007091680080913B
:1000B000690090916A00620F731F811D911D60930A
:1000C0006700709368008093690090936A002091A4
:1000D00066002F5F209366002F3FF9F41370C12F45
:1000E000D0E0C559DF4F2FEF30E040E050E0CCD2F8
:1000F0002883109266001092670010926800109298
:10010000690010926A00123029F48BE690E0D6D094
:1001100010E001C01F5F137017B9369AFF91EF917D
:10012000DF91CF91BF91AF919F918F917F916F910F
:100130005F914F913F912F911F910F900FBE0F90A4
:100140001F90189587B3876087BB8C9A84B3887F8C
:1001500084BB85B3887F85BB80E090E00895949A46
:100160002FEF82E597E0215080409040E1F700C0FA
:10017000000094982FEF82E597E021508040904056
:10018000E1F700C000000895949A2FEF89E698E106
:10019000215080409040E1F700C0000094982FEF7C
:1001A00082E597E0215080409040E1F700C00000D8
:1001B0000895D5DFD4DFD3DFE7DFE6DFE5DFCFDF8C
:1001C000CEDFCDDF0895009721F08F3F910519F024
:1001D0000895C5DF0895EDDF089588B382FB882771
:1001E00080F9819580936F0088B3869581708195A1
:1001F0008093700088B381708195809371008FE641
:1002000090E00895982F937009F0C29A982F9C70EF
:1002100009F0C19A807309F0C09A0895982F9370DD
:1002200009F0C298982F9C7009F0C198807309F06A
:10023000C0980895A1E0B0E0EFE1F1E055C28C0173
:10024000FC018481843019F138F48130A9F060F028
:10025000823021F580E311C08032B1F08F3FE1F0B0
:100260008031E1F48CE011C08BEB898341E0BE0169
:100270006F5F7F4F80E006C08CE0C4DFAEDF43E0FD
:10028000BC0181E096D00AC080E3C8DFF7CF43E02D
:1002900062E770E084E0F6CF83E0C0DFC801E5D21A
:1002A0002196E4E03DC280916E008A3720F48F5F92
:1002B00080936E00089510926E000895FC01808175
:1002C0008093720081818093730082818093740097
:1002D000089584E083BF89B7816089BF80E090E0A2
:1002E00008951F920F920FB60F9211242F933F93F0
:1002F0004F935F936F937F938F939F93AF93BF932E
:10030000EF93FF93D0DFFF91EF91BF91AF919F915A
:100310008F917F916F915F914F913F912F910F90AE
:100320000FBE0F901F901895482FFC0120E03E2F24
:10033000341B361718F43191230FF9CFFC01868155
:10034000281B822F0895CF93DF9310BC83E389B9D4
:100350001BB888E98AB986E880BD8FEF90E0EDD1BF
:10036000EC01909379008093780010927A001092BB
:1003700075008FEF90E0E1D1909377008093760045
:1003800010927D0021E0892B09F020E081E0CD2B47
:1003900009F080E0822B90E0DF91CF9108958823CF
:1003A00011F0559A0895559808955D9BFECF8CB92C
:1003B00008958F929F92BF92CF92DF92EF92FF9219
:1003C0000F931F93CF93DF931F92CDB7DEB7B82E55
:1003D0007B01C42ED12C8601095F1F4FC8014983C0
:1003E000ACD14C019EEAF4019083918312828BEB95
:1003F0008383B482498187E0B82EB40EB582E114BC
:10040000F10429F0A601B701C4010796BDD26B2DF6
:10041000C4018ADFF4018683A801B40180917800C9
:1004200090917900B1D2B0927A0010927500559AED
:10043000C4011BD20F90DF91CF911F910F91FF90BC
:10044000EF90DF90CF90BF909F908F9008951F9274
:100450000F920FB60F921124DF92EF92FF920F933B
:100460001F932F933F934F935F936F937F938F933C
:100470009F93AF93BF93CF93DF93EF93FF932CB1F1
:1004800080917B0090917C0082309105D1F128F41D
:10049000009759F00197E9F08AC08330910509F47B
:1004A00044C0049709F45CC082C02E3A09F07FC0B2
:1004B00080917D00E0917600F0917700E80FF11DCA
:1004C000208380917D008F5F80937D0081E090E0AC
:1004D00013C02E3A09F065C080917D00E09176004E
:1004E000F0917700E80FF11D208380917D008F5FF0
:1004F00080937D0082E090E090937C0080937B006D
:1005000056C02B3B09F04DC080917D00E0917600F4
:10051000F0917700E80FF11D208380917D008F5FBF
:1005200080937D0083E090E0E7CF80917D00E091B3
:100530007600F0917700E80FF11D208380917D0017
:100540008F5F80937D00863090F1E0917600F0918E
:100550007700858187508C3220F584E090E0CCCF05
:1005600080917D00E0917600F0917700E80FF11D19
:100570002083D0907D00D394D0927D0000917600AE
:1005800010917700F8018581D81211C0ED2CF12C63
:10059000C701D3D0EC01A701B801F6D16D2DCE0172
:1005A00049DE10927D0010927C0010927B00FF913A
:1005B000EF91DF91CF91BF91AF919F918F917F91FB
:1005C0006F915F914F913F912F911F910F91FF90EC
:1005D000EF90DF900F900FBE0F901F9018951F9215
:1005E0000F920FB60F9211242F933F934F935F9367
:1005F0006F937F938F939F93AF93BF93EF93FF93EB
:100600008091750090917A00891770F4E0917800DC
:10061000F0917900E80FF11D80818CB9809175000F
:100620008F5F8093750002C080E0B9DEFF91EF918B
:10063000BF91AF919F918F917F916F915F914F91FA
:100640003F912F910F900FBE0F901F9018957ADD5C
:10065000892BB9F404DD892BA1F475DE892B89F48B
:1006600038DE892B71F42FEF84E39CE02150804029
:100670009040E1F700C0000083E0C4DD70DD7894B5
:1006800002C097DDFECFFFCFA1E21A2EAA1BBB1B33
:10069000FD010DC0AA1FBB1FEE1FFF1FA217B3074E
:1006A000E407F50720F0A21BB30BE40BF50B661F64
:1006B000771F881F991F1A9469F760957095809528
:1006C00090959B01AC01BD01CF0108952F923F92FF
:1006D0004F925F926F927F928F929F92AF92BF9252
:1006E000CF92DF92EF92FF920F931F93CF93DF93FE
:1006F000CDB7DEB7CA1BDB0B0FB6F894DEBF0FBE5B
:10070000CDBF09942A88398848885F846E847D84A7
:100710008C849B84AA84B984C884DF80EE80FD80A9
:100720000C811B81AA81B981CE0FD11D0FB6F8941F
:10073000DEBF0FBECDBFED010895CF93DF938230B2
:10074000910510F482E090E0E0918000F09181004A
:1007500020E030E0A0E0B0E0309739F140815181F5
:1007600048175907B8F04817590771F482819381E7
:10077000109729F013969C938E9312972CC0909308
:1007800081008093800027C02115310531F0421788
:10079000530718F0A901DB0101C0EF019A01BD0167
:1007A000DF010280F381E02DD7CF21153105F9F06B
:1007B000281B390B2430310580F48A819B81611517
:1007C000710521F0FB019383828304C09093810023
:1007D00080938000FE01329644C0FE01E20FF31FB9
:1007E0008193919322503109398328833AC0209113
:1007F0007E0030917F00232B41F4209162003091E4
:10080000630030937F0020937E0020916000309140
:1008100061002115310541F42DB73EB740916400C8
:1008200050916500241B350BE0917E00F0917F0014
:10083000E217F307A0F42E1B3F0B2817390778F0B7
:10084000AC014E5F5F4F2417350748F04E0F5F1F16
:1008500050937F0040937E008193919302C0E0E02B
:10086000F0E0CF01DF91CF910895CF93DF93009710
:1008700009F487C0FC01329713821282C091800074
:10088000D0918100209781F420813181280F391F78
:1008900080917E0090917F008217930779F5F09305
:1008A0007F00E0937E006DC0DE0120E030E0AE17F7
:1008B000BF0750F412964D915C9113979D0141151D
:1008C000510509F1DA01F3CFB383A283408151814D
:1008D000840F951F8A179B0771F48D919C91119736
:1008E000840F951F02969183808312968D919C911F
:1008F0001397938382832115310529F4F0938100A6
:10090000E09380003EC0D9011396FC93EE931297BA
:100910004D915D91A40FB51FEA17FB0779F4808113
:100920009181840F951F0296D90111969C938E9305
:100930008281938113969C938E931297E0E0F0E06E
:100940008A819B81009719F0FE01EC01F9CFCE015D
:10095000029628813981820F931F20917E00309169
:100960007F002817390769F4309729F41092810025
:100970001092800002C013821282D0937F00C09335
:100980007E00DF91CF910895FB01DC0102C0019050
:0E0990000D9241505040D8F70895F894FFCFD3
:06099E00000082002000B1
:02000004008278
:02000000E1D944
:00000001FF
